{
  "contracts/Crowdfunding.sol": {
    "Crowdfunding": {
      "abi": [
        {
          "inputs": [],
          "stateMutability": "nonpayable",
          "type": "constructor"
        },
        {
          "inputs": [],
          "name": "CampaignHasEnded",
          "type": "error"
        },
        {
          "inputs": [],
          "name": "CampaignOngoing",
          "type": "error"
        },
        {
          "inputs": [],
          "name": "GoalShouldBeGreaterThanZero",
          "type": "error"
        },
        {
          "inputs": [],
          "name": "NoFundsToWithdraw",
          "type": "error"
        },
        {
          "anonymous": false,
          "inputs": [
            {
              "indexed": true,
              "internalType": "uint256",
              "name": "campaignID",
              "type": "uint256"
            },
            {
              "indexed": false,
              "internalType": "string",
              "name": "title",
              "type": "string"
            },
            {
              "indexed": true,
              "internalType": "address",
              "name": "benefactor",
              "type": "address"
            },
            {
              "indexed": false,
              "internalType": "uint256",
              "name": "goal",
              "type": "uint256"
            },
            {
              "indexed": false,
              "internalType": "uint256",
              "name": "deadline",
              "type": "uint256"
            }
          ],
          "name": "CampaignCreated",
          "type": "event"
        },
        {
          "anonymous": false,
          "inputs": [
            {
              "indexed": true,
              "internalType": "uint256",
              "name": "campaignID",
              "type": "uint256"
            },
            {
              "indexed": true,
              "internalType": "address",
              "name": "benefactor",
              "type": "address"
            },
            {
              "indexed": false,
              "internalType": "uint256",
              "name": "amountRaised",
              "type": "uint256"
            }
          ],
          "name": "CampaignEnded",
          "type": "event"
        },
        {
          "anonymous": false,
          "inputs": [
            {
              "indexed": true,
              "internalType": "uint256",
              "name": "campaignID",
              "type": "uint256"
            },
            {
              "indexed": true,
              "internalType": "address",
              "name": "donor",
              "type": "address"
            },
            {
              "indexed": false,
              "internalType": "uint256",
              "name": "amount",
              "type": "uint256"
            }
          ],
          "name": "DonationReceived",
          "type": "event"
        },
        {
          "anonymous": false,
          "inputs": [
            {
              "indexed": true,
              "internalType": "address",
              "name": "owner",
              "type": "address"
            },
            {
              "indexed": false,
              "internalType": "uint256",
              "name": "amountRaised",
              "type": "uint256"
            }
          ],
          "name": "Withdrawal",
          "type": "event"
        },
        {
          "inputs": [],
          "name": "campaignCount",
          "outputs": [
            {
              "internalType": "uint256",
              "name": "",
              "type": "uint256"
            }
          ],
          "stateMutability": "view",
          "type": "function"
        },
        {
          "inputs": [
            {
              "internalType": "uint256",
              "name": "",
              "type": "uint256"
            }
          ],
          "name": "campaigns",
          "outputs": [
            {
              "internalType": "string",
              "name": "title",
              "type": "string"
            },
            {
              "internalType": "string",
              "name": "description",
              "type": "string"
            },
            {
              "internalType": "address payable",
              "name": "benefactor",
              "type": "address"
            },
            {
              "internalType": "uint256",
              "name": "goal",
              "type": "uint256"
            },
            {
              "internalType": "uint256",
              "name": "deadline",
              "type": "uint256"
            },
            {
              "internalType": "uint256",
              "name": "amountRaised",
              "type": "uint256"
            }
          ],
          "stateMutability": "view",
          "type": "function"
        },
        {
          "inputs": [
            {
              "internalType": "string",
              "name": "_title",
              "type": "string"
            },
            {
              "internalType": "string",
              "name": "_description",
              "type": "string"
            },
            {
              "internalType": "address payable",
              "name": "_benefactor",
              "type": "address"
            },
            {
              "internalType": "uint256",
              "name": "_goal",
              "type": "uint256"
            },
            {
              "internalType": "uint256",
              "name": "_duration",
              "type": "uint256"
            }
          ],
          "name": "createCampaign",
          "outputs": [],
          "stateMutability": "nonpayable",
          "type": "function"
        },
        {
          "inputs": [
            {
              "internalType": "uint256",
              "name": "_campaignID",
              "type": "uint256"
            }
          ],
          "name": "donate",
          "outputs": [],
          "stateMutability": "payable",
          "type": "function"
        },
        {
          "inputs": [
            {
              "internalType": "uint256",
              "name": "_campaignID",
              "type": "uint256"
            }
          ],
          "name": "endCampaign",
          "outputs": [],
          "stateMutability": "nonpayable",
          "type": "function"
        },
        {
          "inputs": [],
          "name": "owner",
          "outputs": [
            {
              "internalType": "address",
              "name": "",
              "type": "address"
            }
          ],
          "stateMutability": "view",
          "type": "function"
        },
        {
          "inputs": [],
          "name": "withdraw",
          "outputs": [],
          "stateMutability": "nonpayable",
          "type": "function"
        }
      ],
      "evm": {
        "bytecode": {
          "linkReferences": {},
          "object": "608060405234801561001057600080fd5b5033600260006101000a81548173ffffffffffffffffffffffffffffffffffffffff021916908373ffffffffffffffffffffffffffffffffffffffff16021790555061115c806100616000396000f3fe6080604052600436106100705760003560e01c80638da5cb5b1161004e5780638da5cb5b146100f95780639304d12414610124578063dd0408ae1461014d578063f14faf6f1461017657610070565b8063141961bc146100755780633ccfd60b146100b75780637274e30d146100ce575b600080fd5b34801561008157600080fd5b5061009c6004803603810190610097919061090c565b610192565b6040516100ae96959493929190610a19565b60405180910390f35b3480156100c357600080fd5b506100cc6102fe565b005b3480156100da57600080fd5b506100e3610478565b6040516100f09190610a88565b60405180910390f35b34801561010557600080fd5b5061010e61047e565b60405161011b9190610ac4565b60405180910390f35b34801561013057600080fd5b5061014b60048036038101906101469190610c40565b6104a4565b005b34801561015957600080fd5b50610174600480360381019061016f919061090c565b610623565b005b610190600480360381019061018b919061090c565b61073c565b005b60006020528060005260406000206000915090508060000180546101b590610d22565b80601f01602080910402602001604051908101604052809291908181526020018280546101e190610d22565b801561022e5780601f106102035761010080835404028352916020019161022e565b820191906000526020600020905b81548152906001019060200180831161021157829003601f168201915b50505050509080600101805461024390610d22565b80601f016020809104026020016040519081016040528092919081815260200182805461026f90610d22565b80156102bc5780601f10610291576101008083540402835291602001916102bc565b820191906000526020600020905b81548152906001019060200180831161029f57829003601f168201915b5050505050908060020160009054906101000a900473ffffffffffffffffffffffffffffffffffffffff16908060030154908060040154908060050154905086565b600260009054906101000a900473ffffffffffffffffffffffffffffffffffffffff1673ffffffffffffffffffffffffffffffffffffffff163373ffffffffffffffffffffffffffffffffffffffff161461038e576040517f08c379a000000000000000000000000000000000000000000000000000000000815260040161038590610d9f565b60405180910390fd5b600047905061039c816107cd565b600260009054906101000a900473ffffffffffffffffffffffffffffffffffffffff1673ffffffffffffffffffffffffffffffffffffffff166108fc829081150290604051600060405180830381858888f19350505050158015610404573d6000803e3d6000fd5b50600260009054906101000a900473ffffffffffffffffffffffffffffffffffffffff1673ffffffffffffffffffffffffffffffffffffffff167f7fcf532c15f0a6db0bd6d0e038bea71d30d808c7d98cb3bf7268a95bf5081b658260405161046d9190610a88565b60405180910390a250565b60015481565b600260009054906101000a900473ffffffffffffffffffffffffffffffffffffffff1681565b6104ad8261080b565b600160008154809291906104c090610dee565b91905055506040518060c001604052808681526020018581526020018473ffffffffffffffffffffffffffffffffffffffff168152602001838152602001824261050a9190610e36565b815260200160008152506000806001548152602001908152602001600020600082015181600001908161053d9190611016565b5060208201518160010190816105539190611016565b5060408201518160020160006101000a81548173ffffffffffffffffffffffffffffffffffffffff021916908373ffffffffffffffffffffffffffffffffffffffff160217905550606082015181600301556080820151816004015560a082015181600501559050508273ffffffffffffffffffffffffffffffffffffffff166001547f2e4be7f0a0275b06869815699165e220352ac35bdea8c927565a098fa77dffb6878585426106059190610e36565b604051610614939291906110e8565b60405180910390a35050505050565b600080600083815260200190815260200160002090506106468160040154610849565b600081600501549050600082600501819055508160020160009054906101000a900473ffffffffffffffffffffffffffffffffffffffff1673ffffffffffffffffffffffffffffffffffffffff166108fc829081150290604051600060405180830381858888f193505050501580156106c3573d6000803e3d6000fd5b508160020160009054906101000a900473ffffffffffffffffffffffffffffffffffffffff1673ffffffffffffffffffffffffffffffffffffffff16837f245a9379f1ec03f73aaedf7ca0b37fb752d67159a6c6a87e0020d39174207ba68360405161072f9190610a88565b60405180910390a3505050565b6000806000838152602001908152602001600020905061075f8160040154610886565b348160050160008282546107739190610e36565b925050819055503373ffffffffffffffffffffffffffffffffffffffff16827f0b5b4c52969ff7329ecf7ee536409fda87812b15a8622bc6e8cdeab3aee14a26346040516107c19190610a88565b60405180910390a35050565b6001811015610808576040517f67e3990d00000000000000000000000000000000000000000000000000000000815260040160405180910390fd5b50565b6001811015610846576040517f42a542d200000000000000000000000000000000000000000000000000000000815260040160405180910390fd5b50565b80421015610883576040517fdd94a3a400000000000000000000000000000000000000000000000000000000815260040160405180910390fd5b50565b8042106108bf576040517f85b1d52800000000000000000000000000000000000000000000000000000000815260040160405180910390fd5b50565b6000604051905090565b600080fd5b600080fd5b6000819050919050565b6108e9816108d6565b81146108f457600080fd5b50565b600081359050610906816108e0565b92915050565b600060208284031215610922576109216108cc565b5b6000610930848285016108f7565b91505092915050565b600081519050919050565b600082825260208201905092915050565b60005b83811015610973578082015181840152602081019050610958565b60008484015250505050565b6000601f19601f8301169050919050565b600061099b82610939565b6109a58185610944565b93506109b5818560208601610955565b6109be8161097f565b840191505092915050565b600073ffffffffffffffffffffffffffffffffffffffff82169050919050565b60006109f4826109c9565b9050919050565b610a04816109e9565b82525050565b610a13816108d6565b82525050565b600060c0820190508181036000830152610a338189610990565b90508181036020830152610a478188610990565b9050610a5660408301876109fb565b610a636060830186610a0a565b610a706080830185610a0a565b610a7d60a0830184610a0a565b979650505050505050565b6000602082019050610a9d6000830184610a0a565b92915050565b6000610aae826109c9565b9050919050565b610abe81610aa3565b82525050565b6000602082019050610ad96000830184610ab5565b92915050565b600080fd5b600080fd5b7f4e487b7100000000000000000000000000000000000000000000000000000000600052604160045260246000fd5b610b218261097f565b810181811067ffffffffffffffff82111715610b4057610b3f610ae9565b5b80604052505050565b6000610b536108c2565b9050610b5f8282610b18565b919050565b600067ffffffffffffffff821115610b7f57610b7e610ae9565b5b610b888261097f565b9050602081019050919050565b82818337600083830152505050565b6000610bb7610bb284610b64565b610b49565b905082815260208101848484011115610bd357610bd2610ae4565b5b610bde848285610b95565b509392505050565b600082601f830112610bfb57610bfa610adf565b5b8135610c0b848260208601610ba4565b91505092915050565b610c1d816109e9565b8114610c2857600080fd5b50565b600081359050610c3a81610c14565b92915050565b600080600080600060a08688031215610c5c57610c5b6108cc565b5b600086013567ffffffffffffffff811115610c7a57610c796108d1565b5b610c8688828901610be6565b955050602086013567ffffffffffffffff811115610ca757610ca66108d1565b5b610cb388828901610be6565b9450506040610cc488828901610c2b565b9350506060610cd5888289016108f7565b9250506080610ce6888289016108f7565b9150509295509295909350565b7f4e487b7100000000000000000000000000000000000000000000000000000000600052602260045260246000fd5b60006002820490506001821680610d3a57607f821691505b602082108103610d4d57610d4c610cf3565b5b50919050565b7f596f7520617265206e6f7420746865206f776e65722100000000000000000000600082015250565b6000610d89601683610944565b9150610d9482610d53565b602082019050919050565b60006020820190508181036000830152610db881610d7c565b9050919050565b7f4e487b7100000000000000000000000000000000000000000000000000000000600052601160045260246000fd5b6000610df9826108d6565b91507fffffffffffffffffffffffffffffffffffffffffffffffffffffffffffffffff8203610e2b57610e2a610dbf565b5b600182019050919050565b6000610e41826108d6565b9150610e4c836108d6565b9250828201905080821115610e6457610e63610dbf565b5b92915050565b60008190508160005260206000209050919050565b60006020601f8301049050919050565b600082821b905092915050565b600060088302610ecc7fffffffffffffffffffffffffffffffffffffffffffffffffffffffffffffffff82610e8f565b610ed68683610e8f565b95508019841693508086168417925050509392505050565b6000819050919050565b6000610f13610f0e610f09846108d6565b610eee565b6108d6565b9050919050565b6000819050919050565b610f2d83610ef8565b610f41610f3982610f1a565b848454610e9c565b825550505050565b600090565b610f56610f49565b610f61818484610f24565b505050565b5b81811015610f8557610f7a600082610f4e565b600181019050610f67565b5050565b601f821115610fca57610f9b81610e6a565b610fa484610e7f565b81016020851015610fb3578190505b610fc7610fbf85610e7f565b830182610f66565b50505b505050565b600082821c905092915050565b6000610fed60001984600802610fcf565b1980831691505092915050565b60006110068383610fdc565b9150826002028217905092915050565b61101f82610939565b67ffffffffffffffff81111561103857611037610ae9565b5b6110428254610d22565b61104d828285610f89565b600060209050601f831160018114611080576000841561106e578287015190505b6110788582610ffa565b8655506110e0565b601f19841661108e86610e6a565b60005b828110156110b657848901518255600182019150602085019450602081019050611091565b868310156110d357848901516110cf601f891682610fdc565b8355505b6001600288020188555050505b505050505050565b600060608201905081810360008301526111028186610990565b90506111116020830185610a0a565b61111e6040830184610a0a565b94935050505056fea26469706673582212208f5e01d75c54695e7ea423ce8a9d7654c0240e2f7737c4072a152d27cac0542964736f6c63430008180033",
          "opcodes": "PUSH1 0x80 PUSH1 0x40 MSTORE CALLVALUE DUP1 ISZERO PUSH2 0x10 JUMPI PUSH1 0x0 DUP1 REVERT JUMPDEST POP CALLER PUSH1 0x2 PUSH1 0x0 PUSH2 0x100 EXP DUP2 SLOAD DUP2 PUSH20 0xFFFFFFFFFFFFFFFFFFFFFFFFFFFFFFFFFFFFFFFF MUL NOT AND SWAP1 DUP4 PUSH20 0xFFFFFFFFFFFFFFFFFFFFFFFFFFFFFFFFFFFFFFFF AND MUL OR SWAP1 SSTORE POP PUSH2 0x115C DUP1 PUSH2 0x61 PUSH1 0x0 CODECOPY PUSH1 0x0 RETURN INVALID PUSH1 0x80 PUSH1 0x40 MSTORE PUSH1 0x4 CALLDATASIZE LT PUSH2 0x70 JUMPI PUSH1 0x0 CALLDATALOAD PUSH1 0xE0 SHR DUP1 PUSH4 0x8DA5CB5B GT PUSH2 0x4E JUMPI DUP1 PUSH4 0x8DA5CB5B EQ PUSH2 0xF9 JUMPI DUP1 PUSH4 0x9304D124 EQ PUSH2 0x124 JUMPI DUP1 PUSH4 0xDD0408AE EQ PUSH2 0x14D JUMPI DUP1 PUSH4 0xF14FAF6F EQ PUSH2 0x176 JUMPI PUSH2 0x70 JUMP JUMPDEST DUP1 PUSH4 0x141961BC EQ PUSH2 0x75 JUMPI DUP1 PUSH4 0x3CCFD60B EQ PUSH2 0xB7 JUMPI DUP1 PUSH4 0x7274E30D EQ PUSH2 0xCE JUMPI JUMPDEST PUSH1 0x0 DUP1 REVERT JUMPDEST CALLVALUE DUP1 ISZERO PUSH2 0x81 JUMPI PUSH1 0x0 DUP1 REVERT JUMPDEST POP PUSH2 0x9C PUSH1 0x4 DUP1 CALLDATASIZE SUB DUP2 ADD SWAP1 PUSH2 0x97 SWAP2 SWAP1 PUSH2 0x90C JUMP JUMPDEST PUSH2 0x192 JUMP JUMPDEST PUSH1 0x40 MLOAD PUSH2 0xAE SWAP7 SWAP6 SWAP5 SWAP4 SWAP3 SWAP2 SWAP1 PUSH2 0xA19 JUMP JUMPDEST PUSH1 0x40 MLOAD DUP1 SWAP2 SUB SWAP1 RETURN JUMPDEST CALLVALUE DUP1 ISZERO PUSH2 0xC3 JUMPI PUSH1 0x0 DUP1 REVERT JUMPDEST POP PUSH2 0xCC PUSH2 0x2FE JUMP JUMPDEST STOP JUMPDEST CALLVALUE DUP1 ISZERO PUSH2 0xDA JUMPI PUSH1 0x0 DUP1 REVERT JUMPDEST POP PUSH2 0xE3 PUSH2 0x478 JUMP JUMPDEST PUSH1 0x40 MLOAD PUSH2 0xF0 SWAP2 SWAP1 PUSH2 0xA88 JUMP JUMPDEST PUSH1 0x40 MLOAD DUP1 SWAP2 SUB SWAP1 RETURN JUMPDEST CALLVALUE DUP1 ISZERO PUSH2 0x105 JUMPI PUSH1 0x0 DUP1 REVERT JUMPDEST POP PUSH2 0x10E PUSH2 0x47E JUMP JUMPDEST PUSH1 0x40 MLOAD PUSH2 0x11B SWAP2 SWAP1 PUSH2 0xAC4 JUMP JUMPDEST PUSH1 0x40 MLOAD DUP1 SWAP2 SUB SWAP1 RETURN JUMPDEST CALLVALUE DUP1 ISZERO PUSH2 0x130 JUMPI PUSH1 0x0 DUP1 REVERT JUMPDEST POP PUSH2 0x14B PUSH1 0x4 DUP1 CALLDATASIZE SUB DUP2 ADD SWAP1 PUSH2 0x146 SWAP2 SWAP1 PUSH2 0xC40 JUMP JUMPDEST PUSH2 0x4A4 JUMP JUMPDEST STOP JUMPDEST CALLVALUE DUP1 ISZERO PUSH2 0x159 JUMPI PUSH1 0x0 DUP1 REVERT JUMPDEST POP PUSH2 0x174 PUSH1 0x4 DUP1 CALLDATASIZE SUB DUP2 ADD SWAP1 PUSH2 0x16F SWAP2 SWAP1 PUSH2 0x90C JUMP JUMPDEST PUSH2 0x623 JUMP JUMPDEST STOP JUMPDEST PUSH2 0x190 PUSH1 0x4 DUP1 CALLDATASIZE SUB DUP2 ADD SWAP1 PUSH2 0x18B SWAP2 SWAP1 PUSH2 0x90C JUMP JUMPDEST PUSH2 0x73C JUMP JUMPDEST STOP JUMPDEST PUSH1 0x0 PUSH1 0x20 MSTORE DUP1 PUSH1 0x0 MSTORE PUSH1 0x40 PUSH1 0x0 KECCAK256 PUSH1 0x0 SWAP2 POP SWAP1 POP DUP1 PUSH1 0x0 ADD DUP1 SLOAD PUSH2 0x1B5 SWAP1 PUSH2 0xD22 JUMP JUMPDEST DUP1 PUSH1 0x1F ADD PUSH1 0x20 DUP1 SWAP2 DIV MUL PUSH1 0x20 ADD PUSH1 0x40 MLOAD SWAP1 DUP2 ADD PUSH1 0x40 MSTORE DUP1 SWAP3 SWAP2 SWAP1 DUP2 DUP2 MSTORE PUSH1 0x20 ADD DUP3 DUP1 SLOAD PUSH2 0x1E1 SWAP1 PUSH2 0xD22 JUMP JUMPDEST DUP1 ISZERO PUSH2 0x22E JUMPI DUP1 PUSH1 0x1F LT PUSH2 0x203 JUMPI PUSH2 0x100 DUP1 DUP4 SLOAD DIV MUL DUP4 MSTORE SWAP2 PUSH1 0x20 ADD SWAP2 PUSH2 0x22E JUMP JUMPDEST DUP3 ADD SWAP2 SWAP1 PUSH1 0x0 MSTORE PUSH1 0x20 PUSH1 0x0 KECCAK256 SWAP1 JUMPDEST DUP2 SLOAD DUP2 MSTORE SWAP1 PUSH1 0x1 ADD SWAP1 PUSH1 0x20 ADD DUP1 DUP4 GT PUSH2 0x211 JUMPI DUP3 SWAP1 SUB PUSH1 0x1F AND DUP3 ADD SWAP2 JUMPDEST POP POP POP POP POP SWAP1 DUP1 PUSH1 0x1 ADD DUP1 SLOAD PUSH2 0x243 SWAP1 PUSH2 0xD22 JUMP JUMPDEST DUP1 PUSH1 0x1F ADD PUSH1 0x20 DUP1 SWAP2 DIV MUL PUSH1 0x20 ADD PUSH1 0x40 MLOAD SWAP1 DUP2 ADD PUSH1 0x40 MSTORE DUP1 SWAP3 SWAP2 SWAP1 DUP2 DUP2 MSTORE PUSH1 0x20 ADD DUP3 DUP1 SLOAD PUSH2 0x26F SWAP1 PUSH2 0xD22 JUMP JUMPDEST DUP1 ISZERO PUSH2 0x2BC JUMPI DUP1 PUSH1 0x1F LT PUSH2 0x291 JUMPI PUSH2 0x100 DUP1 DUP4 SLOAD DIV MUL DUP4 MSTORE SWAP2 PUSH1 0x20 ADD SWAP2 PUSH2 0x2BC JUMP JUMPDEST DUP3 ADD SWAP2 SWAP1 PUSH1 0x0 MSTORE PUSH1 0x20 PUSH1 0x0 KECCAK256 SWAP1 JUMPDEST DUP2 SLOAD DUP2 MSTORE SWAP1 PUSH1 0x1 ADD SWAP1 PUSH1 0x20 ADD DUP1 DUP4 GT PUSH2 0x29F JUMPI DUP3 SWAP1 SUB PUSH1 0x1F AND DUP3 ADD SWAP2 JUMPDEST POP POP POP POP POP SWAP1 DUP1 PUSH1 0x2 ADD PUSH1 0x0 SWAP1 SLOAD SWAP1 PUSH2 0x100 EXP SWAP1 DIV PUSH20 0xFFFFFFFFFFFFFFFFFFFFFFFFFFFFFFFFFFFFFFFF AND SWAP1 DUP1 PUSH1 0x3 ADD SLOAD SWAP1 DUP1 PUSH1 0x4 ADD SLOAD SWAP1 DUP1 PUSH1 0x5 ADD SLOAD SWAP1 POP DUP7 JUMP JUMPDEST PUSH1 0x2 PUSH1 0x0 SWAP1 SLOAD SWAP1 PUSH2 0x100 EXP SWAP1 DIV PUSH20 0xFFFFFFFFFFFFFFFFFFFFFFFFFFFFFFFFFFFFFFFF AND PUSH20 0xFFFFFFFFFFFFFFFFFFFFFFFFFFFFFFFFFFFFFFFF AND CALLER PUSH20 0xFFFFFFFFFFFFFFFFFFFFFFFFFFFFFFFFFFFFFFFF AND EQ PUSH2 0x38E JUMPI PUSH1 0x40 MLOAD PUSH32 0x8C379A000000000000000000000000000000000000000000000000000000000 DUP2 MSTORE PUSH1 0x4 ADD PUSH2 0x385 SWAP1 PUSH2 0xD9F JUMP JUMPDEST PUSH1 0x40 MLOAD DUP1 SWAP2 SUB SWAP1 REVERT JUMPDEST PUSH1 0x0 SELFBALANCE SWAP1 POP PUSH2 0x39C DUP2 PUSH2 0x7CD JUMP JUMPDEST PUSH1 0x2 PUSH1 0x0 SWAP1 SLOAD SWAP1 PUSH2 0x100 EXP SWAP1 DIV PUSH20 0xFFFFFFFFFFFFFFFFFFFFFFFFFFFFFFFFFFFFFFFF AND PUSH20 0xFFFFFFFFFFFFFFFFFFFFFFFFFFFFFFFFFFFFFFFF AND PUSH2 0x8FC DUP3 SWAP1 DUP2 ISZERO MUL SWAP1 PUSH1 0x40 MLOAD PUSH1 0x0 PUSH1 0x40 MLOAD DUP1 DUP4 SUB DUP2 DUP6 DUP9 DUP9 CALL SWAP4 POP POP POP POP ISZERO DUP1 ISZERO PUSH2 0x404 JUMPI RETURNDATASIZE PUSH1 0x0 DUP1 RETURNDATACOPY RETURNDATASIZE PUSH1 0x0 REVERT JUMPDEST POP PUSH1 0x2 PUSH1 0x0 SWAP1 SLOAD SWAP1 PUSH2 0x100 EXP SWAP1 DIV PUSH20 0xFFFFFFFFFFFFFFFFFFFFFFFFFFFFFFFFFFFFFFFF AND PUSH20 0xFFFFFFFFFFFFFFFFFFFFFFFFFFFFFFFFFFFFFFFF AND PUSH32 0x7FCF532C15F0A6DB0BD6D0E038BEA71D30D808C7D98CB3BF7268A95BF5081B65 DUP3 PUSH1 0x40 MLOAD PUSH2 0x46D SWAP2 SWAP1 PUSH2 0xA88 JUMP JUMPDEST PUSH1 0x40 MLOAD DUP1 SWAP2 SUB SWAP1 LOG2 POP JUMP JUMPDEST PUSH1 0x1 SLOAD DUP2 JUMP JUMPDEST PUSH1 0x2 PUSH1 0x0 SWAP1 SLOAD SWAP1 PUSH2 0x100 EXP SWAP1 DIV PUSH20 0xFFFFFFFFFFFFFFFFFFFFFFFFFFFFFFFFFFFFFFFF AND DUP2 JUMP JUMPDEST PUSH2 0x4AD DUP3 PUSH2 0x80B JUMP JUMPDEST PUSH1 0x1 PUSH1 0x0 DUP2 SLOAD DUP1 SWAP3 SWAP2 SWAP1 PUSH2 0x4C0 SWAP1 PUSH2 0xDEE JUMP JUMPDEST SWAP2 SWAP1 POP SSTORE POP PUSH1 0x40 MLOAD DUP1 PUSH1 0xC0 ADD PUSH1 0x40 MSTORE DUP1 DUP7 DUP2 MSTORE PUSH1 0x20 ADD DUP6 DUP2 MSTORE PUSH1 0x20 ADD DUP5 PUSH20 0xFFFFFFFFFFFFFFFFFFFFFFFFFFFFFFFFFFFFFFFF AND DUP2 MSTORE PUSH1 0x20 ADD DUP4 DUP2 MSTORE PUSH1 0x20 ADD DUP3 TIMESTAMP PUSH2 0x50A SWAP2 SWAP1 PUSH2 0xE36 JUMP JUMPDEST DUP2 MSTORE PUSH1 0x20 ADD PUSH1 0x0 DUP2 MSTORE POP PUSH1 0x0 DUP1 PUSH1 0x1 SLOAD DUP2 MSTORE PUSH1 0x20 ADD SWAP1 DUP2 MSTORE PUSH1 0x20 ADD PUSH1 0x0 KECCAK256 PUSH1 0x0 DUP3 ADD MLOAD DUP2 PUSH1 0x0 ADD SWAP1 DUP2 PUSH2 0x53D SWAP2 SWAP1 PUSH2 0x1016 JUMP JUMPDEST POP PUSH1 0x20 DUP3 ADD MLOAD DUP2 PUSH1 0x1 ADD SWAP1 DUP2 PUSH2 0x553 SWAP2 SWAP1 PUSH2 0x1016 JUMP JUMPDEST POP PUSH1 0x40 DUP3 ADD MLOAD DUP2 PUSH1 0x2 ADD PUSH1 0x0 PUSH2 0x100 EXP DUP2 SLOAD DUP2 PUSH20 0xFFFFFFFFFFFFFFFFFFFFFFFFFFFFFFFFFFFFFFFF MUL NOT AND SWAP1 DUP4 PUSH20 0xFFFFFFFFFFFFFFFFFFFFFFFFFFFFFFFFFFFFFFFF AND MUL OR SWAP1 SSTORE POP PUSH1 0x60 DUP3 ADD MLOAD DUP2 PUSH1 0x3 ADD SSTORE PUSH1 0x80 DUP3 ADD MLOAD DUP2 PUSH1 0x4 ADD SSTORE PUSH1 0xA0 DUP3 ADD MLOAD DUP2 PUSH1 0x5 ADD SSTORE SWAP1 POP POP DUP3 PUSH20 0xFFFFFFFFFFFFFFFFFFFFFFFFFFFFFFFFFFFFFFFF AND PUSH1 0x1 SLOAD PUSH32 0x2E4BE7F0A0275B06869815699165E220352AC35BDEA8C927565A098FA77DFFB6 DUP8 DUP6 DUP6 TIMESTAMP PUSH2 0x605 SWAP2 SWAP1 PUSH2 0xE36 JUMP JUMPDEST PUSH1 0x40 MLOAD PUSH2 0x614 SWAP4 SWAP3 SWAP2 SWAP1 PUSH2 0x10E8 JUMP JUMPDEST PUSH1 0x40 MLOAD DUP1 SWAP2 SUB SWAP1 LOG3 POP POP POP POP POP JUMP JUMPDEST PUSH1 0x0 DUP1 PUSH1 0x0 DUP4 DUP2 MSTORE PUSH1 0x20 ADD SWAP1 DUP2 MSTORE PUSH1 0x20 ADD PUSH1 0x0 KECCAK256 SWAP1 POP PUSH2 0x646 DUP2 PUSH1 0x4 ADD SLOAD PUSH2 0x849 JUMP JUMPDEST PUSH1 0x0 DUP2 PUSH1 0x5 ADD SLOAD SWAP1 POP PUSH1 0x0 DUP3 PUSH1 0x5 ADD DUP2 SWAP1 SSTORE POP DUP2 PUSH1 0x2 ADD PUSH1 0x0 SWAP1 SLOAD SWAP1 PUSH2 0x100 EXP SWAP1 DIV PUSH20 0xFFFFFFFFFFFFFFFFFFFFFFFFFFFFFFFFFFFFFFFF AND PUSH20 0xFFFFFFFFFFFFFFFFFFFFFFFFFFFFFFFFFFFFFFFF AND PUSH2 0x8FC DUP3 SWAP1 DUP2 ISZERO MUL SWAP1 PUSH1 0x40 MLOAD PUSH1 0x0 PUSH1 0x40 MLOAD DUP1 DUP4 SUB DUP2 DUP6 DUP9 DUP9 CALL SWAP4 POP POP POP POP ISZERO DUP1 ISZERO PUSH2 0x6C3 JUMPI RETURNDATASIZE PUSH1 0x0 DUP1 RETURNDATACOPY RETURNDATASIZE PUSH1 0x0 REVERT JUMPDEST POP DUP2 PUSH1 0x2 ADD PUSH1 0x0 SWAP1 SLOAD SWAP1 PUSH2 0x100 EXP SWAP1 DIV PUSH20 0xFFFFFFFFFFFFFFFFFFFFFFFFFFFFFFFFFFFFFFFF AND PUSH20 0xFFFFFFFFFFFFFFFFFFFFFFFFFFFFFFFFFFFFFFFF AND DUP4 PUSH32 0x245A9379F1EC03F73AAEDF7CA0B37FB752D67159A6C6A87E0020D39174207BA6 DUP4 PUSH1 0x40 MLOAD PUSH2 0x72F SWAP2 SWAP1 PUSH2 0xA88 JUMP JUMPDEST PUSH1 0x40 MLOAD DUP1 SWAP2 SUB SWAP1 LOG3 POP POP POP JUMP JUMPDEST PUSH1 0x0 DUP1 PUSH1 0x0 DUP4 DUP2 MSTORE PUSH1 0x20 ADD SWAP1 DUP2 MSTORE PUSH1 0x20 ADD PUSH1 0x0 KECCAK256 SWAP1 POP PUSH2 0x75F DUP2 PUSH1 0x4 ADD SLOAD PUSH2 0x886 JUMP JUMPDEST CALLVALUE DUP2 PUSH1 0x5 ADD PUSH1 0x0 DUP3 DUP3 SLOAD PUSH2 0x773 SWAP2 SWAP1 PUSH2 0xE36 JUMP JUMPDEST SWAP3 POP POP DUP2 SWAP1 SSTORE POP CALLER PUSH20 0xFFFFFFFFFFFFFFFFFFFFFFFFFFFFFFFFFFFFFFFF AND DUP3 PUSH32 0xB5B4C52969FF7329ECF7EE536409FDA87812B15A8622BC6E8CDEAB3AEE14A26 CALLVALUE PUSH1 0x40 MLOAD PUSH2 0x7C1 SWAP2 SWAP1 PUSH2 0xA88 JUMP JUMPDEST PUSH1 0x40 MLOAD DUP1 SWAP2 SUB SWAP1 LOG3 POP POP JUMP JUMPDEST PUSH1 0x1 DUP2 LT ISZERO PUSH2 0x808 JUMPI PUSH1 0x40 MLOAD PUSH32 0x67E3990D00000000000000000000000000000000000000000000000000000000 DUP2 MSTORE PUSH1 0x4 ADD PUSH1 0x40 MLOAD DUP1 SWAP2 SUB SWAP1 REVERT JUMPDEST POP JUMP JUMPDEST PUSH1 0x1 DUP2 LT ISZERO PUSH2 0x846 JUMPI PUSH1 0x40 MLOAD PUSH32 0x42A542D200000000000000000000000000000000000000000000000000000000 DUP2 MSTORE PUSH1 0x4 ADD PUSH1 0x40 MLOAD DUP1 SWAP2 SUB SWAP1 REVERT JUMPDEST POP JUMP JUMPDEST DUP1 TIMESTAMP LT ISZERO PUSH2 0x883 JUMPI PUSH1 0x40 MLOAD PUSH32 0xDD94A3A400000000000000000000000000000000000000000000000000000000 DUP2 MSTORE PUSH1 0x4 ADD PUSH1 0x40 MLOAD DUP1 SWAP2 SUB SWAP1 REVERT JUMPDEST POP JUMP JUMPDEST DUP1 TIMESTAMP LT PUSH2 0x8BF JUMPI PUSH1 0x40 MLOAD PUSH32 0x85B1D52800000000000000000000000000000000000000000000000000000000 DUP2 MSTORE PUSH1 0x4 ADD PUSH1 0x40 MLOAD DUP1 SWAP2 SUB SWAP1 REVERT JUMPDEST POP JUMP JUMPDEST PUSH1 0x0 PUSH1 0x40 MLOAD SWAP1 POP SWAP1 JUMP JUMPDEST PUSH1 0x0 DUP1 REVERT JUMPDEST PUSH1 0x0 DUP1 REVERT JUMPDEST PUSH1 0x0 DUP2 SWAP1 POP SWAP2 SWAP1 POP JUMP JUMPDEST PUSH2 0x8E9 DUP2 PUSH2 0x8D6 JUMP JUMPDEST DUP2 EQ PUSH2 0x8F4 JUMPI PUSH1 0x0 DUP1 REVERT JUMPDEST POP JUMP JUMPDEST PUSH1 0x0 DUP2 CALLDATALOAD SWAP1 POP PUSH2 0x906 DUP2 PUSH2 0x8E0 JUMP JUMPDEST SWAP3 SWAP2 POP POP JUMP JUMPDEST PUSH1 0x0 PUSH1 0x20 DUP3 DUP5 SUB SLT ISZERO PUSH2 0x922 JUMPI PUSH2 0x921 PUSH2 0x8CC JUMP JUMPDEST JUMPDEST PUSH1 0x0 PUSH2 0x930 DUP5 DUP3 DUP6 ADD PUSH2 0x8F7 JUMP JUMPDEST SWAP2 POP POP SWAP3 SWAP2 POP POP JUMP JUMPDEST PUSH1 0x0 DUP2 MLOAD SWAP1 POP SWAP2 SWAP1 POP JUMP JUMPDEST PUSH1 0x0 DUP3 DUP3 MSTORE PUSH1 0x20 DUP3 ADD SWAP1 POP SWAP3 SWAP2 POP POP JUMP JUMPDEST PUSH1 0x0 JUMPDEST DUP4 DUP2 LT ISZERO PUSH2 0x973 JUMPI DUP1 DUP3 ADD MLOAD DUP2 DUP5 ADD MSTORE PUSH1 0x20 DUP2 ADD SWAP1 POP PUSH2 0x958 JUMP JUMPDEST PUSH1 0x0 DUP5 DUP5 ADD MSTORE POP POP POP POP JUMP JUMPDEST PUSH1 0x0 PUSH1 0x1F NOT PUSH1 0x1F DUP4 ADD AND SWAP1 POP SWAP2 SWAP1 POP JUMP JUMPDEST PUSH1 0x0 PUSH2 0x99B DUP3 PUSH2 0x939 JUMP JUMPDEST PUSH2 0x9A5 DUP2 DUP6 PUSH2 0x944 JUMP JUMPDEST SWAP4 POP PUSH2 0x9B5 DUP2 DUP6 PUSH1 0x20 DUP7 ADD PUSH2 0x955 JUMP JUMPDEST PUSH2 0x9BE DUP2 PUSH2 0x97F JUMP JUMPDEST DUP5 ADD SWAP2 POP POP SWAP3 SWAP2 POP POP JUMP JUMPDEST PUSH1 0x0 PUSH20 0xFFFFFFFFFFFFFFFFFFFFFFFFFFFFFFFFFFFFFFFF DUP3 AND SWAP1 POP SWAP2 SWAP1 POP JUMP JUMPDEST PUSH1 0x0 PUSH2 0x9F4 DUP3 PUSH2 0x9C9 JUMP JUMPDEST SWAP1 POP SWAP2 SWAP1 POP JUMP JUMPDEST PUSH2 0xA04 DUP2 PUSH2 0x9E9 JUMP JUMPDEST DUP3 MSTORE POP POP JUMP JUMPDEST PUSH2 0xA13 DUP2 PUSH2 0x8D6 JUMP JUMPDEST DUP3 MSTORE POP POP JUMP JUMPDEST PUSH1 0x0 PUSH1 0xC0 DUP3 ADD SWAP1 POP DUP2 DUP2 SUB PUSH1 0x0 DUP4 ADD MSTORE PUSH2 0xA33 DUP2 DUP10 PUSH2 0x990 JUMP JUMPDEST SWAP1 POP DUP2 DUP2 SUB PUSH1 0x20 DUP4 ADD MSTORE PUSH2 0xA47 DUP2 DUP9 PUSH2 0x990 JUMP JUMPDEST SWAP1 POP PUSH2 0xA56 PUSH1 0x40 DUP4 ADD DUP8 PUSH2 0x9FB JUMP JUMPDEST PUSH2 0xA63 PUSH1 0x60 DUP4 ADD DUP7 PUSH2 0xA0A JUMP JUMPDEST PUSH2 0xA70 PUSH1 0x80 DUP4 ADD DUP6 PUSH2 0xA0A JUMP JUMPDEST PUSH2 0xA7D PUSH1 0xA0 DUP4 ADD DUP5 PUSH2 0xA0A JUMP JUMPDEST SWAP8 SWAP7 POP POP POP POP POP POP POP JUMP JUMPDEST PUSH1 0x0 PUSH1 0x20 DUP3 ADD SWAP1 POP PUSH2 0xA9D PUSH1 0x0 DUP4 ADD DUP5 PUSH2 0xA0A JUMP JUMPDEST SWAP3 SWAP2 POP POP JUMP JUMPDEST PUSH1 0x0 PUSH2 0xAAE DUP3 PUSH2 0x9C9 JUMP JUMPDEST SWAP1 POP SWAP2 SWAP1 POP JUMP JUMPDEST PUSH2 0xABE DUP2 PUSH2 0xAA3 JUMP JUMPDEST DUP3 MSTORE POP POP JUMP JUMPDEST PUSH1 0x0 PUSH1 0x20 DUP3 ADD SWAP1 POP PUSH2 0xAD9 PUSH1 0x0 DUP4 ADD DUP5 PUSH2 0xAB5 JUMP JUMPDEST SWAP3 SWAP2 POP POP JUMP JUMPDEST PUSH1 0x0 DUP1 REVERT JUMPDEST PUSH1 0x0 DUP1 REVERT JUMPDEST PUSH32 0x4E487B7100000000000000000000000000000000000000000000000000000000 PUSH1 0x0 MSTORE PUSH1 0x41 PUSH1 0x4 MSTORE PUSH1 0x24 PUSH1 0x0 REVERT JUMPDEST PUSH2 0xB21 DUP3 PUSH2 0x97F JUMP JUMPDEST DUP2 ADD DUP2 DUP2 LT PUSH8 0xFFFFFFFFFFFFFFFF DUP3 GT OR ISZERO PUSH2 0xB40 JUMPI PUSH2 0xB3F PUSH2 0xAE9 JUMP JUMPDEST JUMPDEST DUP1 PUSH1 0x40 MSTORE POP POP POP JUMP JUMPDEST PUSH1 0x0 PUSH2 0xB53 PUSH2 0x8C2 JUMP JUMPDEST SWAP1 POP PUSH2 0xB5F DUP3 DUP3 PUSH2 0xB18 JUMP JUMPDEST SWAP2 SWAP1 POP JUMP JUMPDEST PUSH1 0x0 PUSH8 0xFFFFFFFFFFFFFFFF DUP3 GT ISZERO PUSH2 0xB7F JUMPI PUSH2 0xB7E PUSH2 0xAE9 JUMP JUMPDEST JUMPDEST PUSH2 0xB88 DUP3 PUSH2 0x97F JUMP JUMPDEST SWAP1 POP PUSH1 0x20 DUP2 ADD SWAP1 POP SWAP2 SWAP1 POP JUMP JUMPDEST DUP3 DUP2 DUP4 CALLDATACOPY PUSH1 0x0 DUP4 DUP4 ADD MSTORE POP POP POP JUMP JUMPDEST PUSH1 0x0 PUSH2 0xBB7 PUSH2 0xBB2 DUP5 PUSH2 0xB64 JUMP JUMPDEST PUSH2 0xB49 JUMP JUMPDEST SWAP1 POP DUP3 DUP2 MSTORE PUSH1 0x20 DUP2 ADD DUP5 DUP5 DUP5 ADD GT ISZERO PUSH2 0xBD3 JUMPI PUSH2 0xBD2 PUSH2 0xAE4 JUMP JUMPDEST JUMPDEST PUSH2 0xBDE DUP5 DUP3 DUP6 PUSH2 0xB95 JUMP JUMPDEST POP SWAP4 SWAP3 POP POP POP JUMP JUMPDEST PUSH1 0x0 DUP3 PUSH1 0x1F DUP4 ADD SLT PUSH2 0xBFB JUMPI PUSH2 0xBFA PUSH2 0xADF JUMP JUMPDEST JUMPDEST DUP2 CALLDATALOAD PUSH2 0xC0B DUP5 DUP3 PUSH1 0x20 DUP7 ADD PUSH2 0xBA4 JUMP JUMPDEST SWAP2 POP POP SWAP3 SWAP2 POP POP JUMP JUMPDEST PUSH2 0xC1D DUP2 PUSH2 0x9E9 JUMP JUMPDEST DUP2 EQ PUSH2 0xC28 JUMPI PUSH1 0x0 DUP1 REVERT JUMPDEST POP JUMP JUMPDEST PUSH1 0x0 DUP2 CALLDATALOAD SWAP1 POP PUSH2 0xC3A DUP2 PUSH2 0xC14 JUMP JUMPDEST SWAP3 SWAP2 POP POP JUMP JUMPDEST PUSH1 0x0 DUP1 PUSH1 0x0 DUP1 PUSH1 0x0 PUSH1 0xA0 DUP7 DUP9 SUB SLT ISZERO PUSH2 0xC5C JUMPI PUSH2 0xC5B PUSH2 0x8CC JUMP JUMPDEST JUMPDEST PUSH1 0x0 DUP7 ADD CALLDATALOAD PUSH8 0xFFFFFFFFFFFFFFFF DUP2 GT ISZERO PUSH2 0xC7A JUMPI PUSH2 0xC79 PUSH2 0x8D1 JUMP JUMPDEST JUMPDEST PUSH2 0xC86 DUP9 DUP3 DUP10 ADD PUSH2 0xBE6 JUMP JUMPDEST SWAP6 POP POP PUSH1 0x20 DUP7 ADD CALLDATALOAD PUSH8 0xFFFFFFFFFFFFFFFF DUP2 GT ISZERO PUSH2 0xCA7 JUMPI PUSH2 0xCA6 PUSH2 0x8D1 JUMP JUMPDEST JUMPDEST PUSH2 0xCB3 DUP9 DUP3 DUP10 ADD PUSH2 0xBE6 JUMP JUMPDEST SWAP5 POP POP PUSH1 0x40 PUSH2 0xCC4 DUP9 DUP3 DUP10 ADD PUSH2 0xC2B JUMP JUMPDEST SWAP4 POP POP PUSH1 0x60 PUSH2 0xCD5 DUP9 DUP3 DUP10 ADD PUSH2 0x8F7 JUMP JUMPDEST SWAP3 POP POP PUSH1 0x80 PUSH2 0xCE6 DUP9 DUP3 DUP10 ADD PUSH2 0x8F7 JUMP JUMPDEST SWAP2 POP POP SWAP3 SWAP6 POP SWAP3 SWAP6 SWAP1 SWAP4 POP JUMP JUMPDEST PUSH32 0x4E487B7100000000000000000000000000000000000000000000000000000000 PUSH1 0x0 MSTORE PUSH1 0x22 PUSH1 0x4 MSTORE PUSH1 0x24 PUSH1 0x0 REVERT JUMPDEST PUSH1 0x0 PUSH1 0x2 DUP3 DIV SWAP1 POP PUSH1 0x1 DUP3 AND DUP1 PUSH2 0xD3A JUMPI PUSH1 0x7F DUP3 AND SWAP2 POP JUMPDEST PUSH1 0x20 DUP3 LT DUP2 SUB PUSH2 0xD4D JUMPI PUSH2 0xD4C PUSH2 0xCF3 JUMP JUMPDEST JUMPDEST POP SWAP2 SWAP1 POP JUMP JUMPDEST PUSH32 0x596F7520617265206E6F7420746865206F776E65722100000000000000000000 PUSH1 0x0 DUP3 ADD MSTORE POP JUMP JUMPDEST PUSH1 0x0 PUSH2 0xD89 PUSH1 0x16 DUP4 PUSH2 0x944 JUMP JUMPDEST SWAP2 POP PUSH2 0xD94 DUP3 PUSH2 0xD53 JUMP JUMPDEST PUSH1 0x20 DUP3 ADD SWAP1 POP SWAP2 SWAP1 POP JUMP JUMPDEST PUSH1 0x0 PUSH1 0x20 DUP3 ADD SWAP1 POP DUP2 DUP2 SUB PUSH1 0x0 DUP4 ADD MSTORE PUSH2 0xDB8 DUP2 PUSH2 0xD7C JUMP JUMPDEST SWAP1 POP SWAP2 SWAP1 POP JUMP JUMPDEST PUSH32 0x4E487B7100000000000000000000000000000000000000000000000000000000 PUSH1 0x0 MSTORE PUSH1 0x11 PUSH1 0x4 MSTORE PUSH1 0x24 PUSH1 0x0 REVERT JUMPDEST PUSH1 0x0 PUSH2 0xDF9 DUP3 PUSH2 0x8D6 JUMP JUMPDEST SWAP2 POP PUSH32 0xFFFFFFFFFFFFFFFFFFFFFFFFFFFFFFFFFFFFFFFFFFFFFFFFFFFFFFFFFFFFFFFF DUP3 SUB PUSH2 0xE2B JUMPI PUSH2 0xE2A PUSH2 0xDBF JUMP JUMPDEST JUMPDEST PUSH1 0x1 DUP3 ADD SWAP1 POP SWAP2 SWAP1 POP JUMP JUMPDEST PUSH1 0x0 PUSH2 0xE41 DUP3 PUSH2 0x8D6 JUMP JUMPDEST SWAP2 POP PUSH2 0xE4C DUP4 PUSH2 0x8D6 JUMP JUMPDEST SWAP3 POP DUP3 DUP3 ADD SWAP1 POP DUP1 DUP3 GT ISZERO PUSH2 0xE64 JUMPI PUSH2 0xE63 PUSH2 0xDBF JUMP JUMPDEST JUMPDEST SWAP3 SWAP2 POP POP JUMP JUMPDEST PUSH1 0x0 DUP2 SWAP1 POP DUP2 PUSH1 0x0 MSTORE PUSH1 0x20 PUSH1 0x0 KECCAK256 SWAP1 POP SWAP2 SWAP1 POP JUMP JUMPDEST PUSH1 0x0 PUSH1 0x20 PUSH1 0x1F DUP4 ADD DIV SWAP1 POP SWAP2 SWAP1 POP JUMP JUMPDEST PUSH1 0x0 DUP3 DUP3 SHL SWAP1 POP SWAP3 SWAP2 POP POP JUMP JUMPDEST PUSH1 0x0 PUSH1 0x8 DUP4 MUL PUSH2 0xECC PUSH32 0xFFFFFFFFFFFFFFFFFFFFFFFFFFFFFFFFFFFFFFFFFFFFFFFFFFFFFFFFFFFFFFFF DUP3 PUSH2 0xE8F JUMP JUMPDEST PUSH2 0xED6 DUP7 DUP4 PUSH2 0xE8F JUMP JUMPDEST SWAP6 POP DUP1 NOT DUP5 AND SWAP4 POP DUP1 DUP7 AND DUP5 OR SWAP3 POP POP POP SWAP4 SWAP3 POP POP POP JUMP JUMPDEST PUSH1 0x0 DUP2 SWAP1 POP SWAP2 SWAP1 POP JUMP JUMPDEST PUSH1 0x0 PUSH2 0xF13 PUSH2 0xF0E PUSH2 0xF09 DUP5 PUSH2 0x8D6 JUMP JUMPDEST PUSH2 0xEEE JUMP JUMPDEST PUSH2 0x8D6 JUMP JUMPDEST SWAP1 POP SWAP2 SWAP1 POP JUMP JUMPDEST PUSH1 0x0 DUP2 SWAP1 POP SWAP2 SWAP1 POP JUMP JUMPDEST PUSH2 0xF2D DUP4 PUSH2 0xEF8 JUMP JUMPDEST PUSH2 0xF41 PUSH2 0xF39 DUP3 PUSH2 0xF1A JUMP JUMPDEST DUP5 DUP5 SLOAD PUSH2 0xE9C JUMP JUMPDEST DUP3 SSTORE POP POP POP POP JUMP JUMPDEST PUSH1 0x0 SWAP1 JUMP JUMPDEST PUSH2 0xF56 PUSH2 0xF49 JUMP JUMPDEST PUSH2 0xF61 DUP2 DUP5 DUP5 PUSH2 0xF24 JUMP JUMPDEST POP POP POP JUMP JUMPDEST JUMPDEST DUP2 DUP2 LT ISZERO PUSH2 0xF85 JUMPI PUSH2 0xF7A PUSH1 0x0 DUP3 PUSH2 0xF4E JUMP JUMPDEST PUSH1 0x1 DUP2 ADD SWAP1 POP PUSH2 0xF67 JUMP JUMPDEST POP POP JUMP JUMPDEST PUSH1 0x1F DUP3 GT ISZERO PUSH2 0xFCA JUMPI PUSH2 0xF9B DUP2 PUSH2 0xE6A JUMP JUMPDEST PUSH2 0xFA4 DUP5 PUSH2 0xE7F JUMP JUMPDEST DUP2 ADD PUSH1 0x20 DUP6 LT ISZERO PUSH2 0xFB3 JUMPI DUP2 SWAP1 POP JUMPDEST PUSH2 0xFC7 PUSH2 0xFBF DUP6 PUSH2 0xE7F JUMP JUMPDEST DUP4 ADD DUP3 PUSH2 0xF66 JUMP JUMPDEST POP POP JUMPDEST POP POP POP JUMP JUMPDEST PUSH1 0x0 DUP3 DUP3 SHR SWAP1 POP SWAP3 SWAP2 POP POP JUMP JUMPDEST PUSH1 0x0 PUSH2 0xFED PUSH1 0x0 NOT DUP5 PUSH1 0x8 MUL PUSH2 0xFCF JUMP JUMPDEST NOT DUP1 DUP4 AND SWAP2 POP POP SWAP3 SWAP2 POP POP JUMP JUMPDEST PUSH1 0x0 PUSH2 0x1006 DUP4 DUP4 PUSH2 0xFDC JUMP JUMPDEST SWAP2 POP DUP3 PUSH1 0x2 MUL DUP3 OR SWAP1 POP SWAP3 SWAP2 POP POP JUMP JUMPDEST PUSH2 0x101F DUP3 PUSH2 0x939 JUMP JUMPDEST PUSH8 0xFFFFFFFFFFFFFFFF DUP2 GT ISZERO PUSH2 0x1038 JUMPI PUSH2 0x1037 PUSH2 0xAE9 JUMP JUMPDEST JUMPDEST PUSH2 0x1042 DUP3 SLOAD PUSH2 0xD22 JUMP JUMPDEST PUSH2 0x104D DUP3 DUP3 DUP6 PUSH2 0xF89 JUMP JUMPDEST PUSH1 0x0 PUSH1 0x20 SWAP1 POP PUSH1 0x1F DUP4 GT PUSH1 0x1 DUP2 EQ PUSH2 0x1080 JUMPI PUSH1 0x0 DUP5 ISZERO PUSH2 0x106E JUMPI DUP3 DUP8 ADD MLOAD SWAP1 POP JUMPDEST PUSH2 0x1078 DUP6 DUP3 PUSH2 0xFFA JUMP JUMPDEST DUP7 SSTORE POP PUSH2 0x10E0 JUMP JUMPDEST PUSH1 0x1F NOT DUP5 AND PUSH2 0x108E DUP7 PUSH2 0xE6A JUMP JUMPDEST PUSH1 0x0 JUMPDEST DUP3 DUP2 LT ISZERO PUSH2 0x10B6 JUMPI DUP5 DUP10 ADD MLOAD DUP3 SSTORE PUSH1 0x1 DUP3 ADD SWAP2 POP PUSH1 0x20 DUP6 ADD SWAP5 POP PUSH1 0x20 DUP2 ADD SWAP1 POP PUSH2 0x1091 JUMP JUMPDEST DUP7 DUP4 LT ISZERO PUSH2 0x10D3 JUMPI DUP5 DUP10 ADD MLOAD PUSH2 0x10CF PUSH1 0x1F DUP10 AND DUP3 PUSH2 0xFDC JUMP JUMPDEST DUP4 SSTORE POP JUMPDEST PUSH1 0x1 PUSH1 0x2 DUP9 MUL ADD DUP9 SSTORE POP POP POP JUMPDEST POP POP POP POP POP POP JUMP JUMPDEST PUSH1 0x0 PUSH1 0x60 DUP3 ADD SWAP1 POP DUP2 DUP2 SUB PUSH1 0x0 DUP4 ADD MSTORE PUSH2 0x1102 DUP2 DUP7 PUSH2 0x990 JUMP JUMPDEST SWAP1 POP PUSH2 0x1111 PUSH1 0x20 DUP4 ADD DUP6 PUSH2 0xA0A JUMP JUMPDEST PUSH2 0x111E PUSH1 0x40 DUP4 ADD DUP5 PUSH2 0xA0A JUMP JUMPDEST SWAP5 SWAP4 POP POP POP POP JUMP INVALID LOG2 PUSH5 0x6970667358 0x22 SLT KECCAK256 DUP16 MCOPY ADD 0xD7 TLOAD SLOAD PUSH10 0x5E7EA423CE8A9D7654C0 0x24 0xE 0x2F PUSH24 0x37C4072A152D27CAC0542964736F6C634300081800330000 "
        },
        "methodIdentifiers": {
          "campaignCount()": "7274e30d",
          "campaigns(uint256)": "141961bc",
          "createCampaign(string,string,address,uint256,uint256)": "9304d124",
          "donate(uint256)": "f14faf6f",
          "endCampaign(uint256)": "dd0408ae",
          "owner()": "8da5cb5b",
          "withdraw()": "3ccfd60b"
        }
      }
    }
  }
}